{
  "_format": "hh-sol-artifact-1",
  "contractName": "Reputation",
  "sourceName": "contracts/Reputation.sol",
  "abi": [
    {
      "anonymous": false,
      "inputs": [
        {
          "indexed": true,
          "internalType": "address",
          "name": "user",
          "type": "address"
        },
        {
          "indexed": false,
          "internalType": "uint256",
          "name": "rating",
          "type": "uint256"
        },
        {
          "indexed": false,
          "internalType": "string",
          "name": "comment",
          "type": "string"
        }
      ],
      "name": "FeedbackGiven",
      "type": "event"
    },
    {
      "inputs": [
        {
          "internalType": "address",
          "name": "",
          "type": "address"
        },
        {
          "internalType": "uint256",
          "name": "",
          "type": "uint256"
        }
      ],
      "name": "feedbacks",
      "outputs": [
        {
          "internalType": "uint256",
          "name": "rating",
          "type": "uint256"
        },
        {
          "internalType": "string",
          "name": "comment",
          "type": "string"
        }
      ],
      "stateMutability": "view",
      "type": "function"
    },
    {
      "inputs": [
        {
          "internalType": "address",
          "name": "_user",
          "type": "address"
        }
      ],
      "name": "getAverageRating",
      "outputs": [
        {
          "internalType": "uint256",
          "name": "avg",
          "type": "uint256"
        }
      ],
      "stateMutability": "view",
      "type": "function"
    },
    {
      "inputs": [
        {
          "internalType": "address",
          "name": "_user",
          "type": "address"
        },
        {
          "internalType": "uint256",
          "name": "_rating",
          "type": "uint256"
        },
        {
          "internalType": "string",
          "name": "_comment",
          "type": "string"
        }
      ],
      "name": "giveFeedback",
      "outputs": [],
      "stateMutability": "nonpayable",
      "type": "function"
    }
  ],
  "bytecode": "0x6080604052348015600f57600080fd5b50610c8f8061001f6000396000f3fe608060405234801561001057600080fd5b50600436106100415760003560e01c80638c6529c114610046578063c8b6752214610077578063f6e03552146100a7575b600080fd5b610060600480360381019061005b9190610522565b6100c3565b60405161006e929190610601565b60405180910390f35b610091600480360381019061008c9190610631565b61018c565b60405161009e919061065e565b60405180910390f35b6100c160048036038101906100bc91906107ae565b610336565b005b600060205281600052604060002081815481106100df57600080fd5b9060005260206000209060020201600091509150508060000154908060010180546101099061084c565b80601f01602080910402602001604051908101604052809291908181526020018280546101359061084c565b80156101825780601f1061015757610100808354040283529160200191610182565b820191906000526020600020905b81548152906001019060200180831161016557829003601f168201915b5050505050905082565b6000806000808473ffffffffffffffffffffffffffffffffffffffff1673ffffffffffffffffffffffffffffffffffffffff168152602001908152602001600020805480602002602001604051908101604052809291908181526020016000905b828210156102bb57838290600052602060002090600202016040518060400160405290816000820154815260200160018201805461022a9061084c565b80601f01602080910402602001604051908101604052809291908181526020018280546102569061084c565b80156102a35780601f10610278576101008083540402835291602001916102a3565b820191906000526020600020905b81548152906001019060200180831161028657829003601f168201915b505050505081525050815260200190600101906101ed565b50505050905060008151036102d4576000915050610331565b600080600090505b825181101561031e578281815181106102f8576102f761087d565b5b6020026020010151600001518261030f91906108db565b915080806001019150506102dc565b5081518161032c919061093e565b925050505b919050565b60018210158015610348575060058211155b610387576040517f08c379a000000000000000000000000000000000000000000000000000000000815260040161037e906109bb565b60405180910390fd5b6000808473ffffffffffffffffffffffffffffffffffffffff1673ffffffffffffffffffffffffffffffffffffffff16815260200190815260200160002060405180604001604052808481526020018381525090806001815401808255809150506001900390600052602060002090600202016000909190919091506000820151816000015560208201518160010190816104229190610b87565b5050508273ffffffffffffffffffffffffffffffffffffffff167fc879d53058cc58c9b1521a5267eb2023d3628c2b3c38a8a2514413e9064b0f08838360405161046d929190610601565b60405180910390a2505050565b6000604051905090565b600080fd5b600080fd5b600073ffffffffffffffffffffffffffffffffffffffff82169050919050565b60006104b98261048e565b9050919050565b6104c9816104ae565b81146104d457600080fd5b50565b6000813590506104e6816104c0565b92915050565b6000819050919050565b6104ff816104ec565b811461050a57600080fd5b50565b60008135905061051c816104f6565b92915050565b6000806040838503121561053957610538610484565b5b6000610547858286016104d7565b92505060206105588582860161050d565b9150509250929050565b61056b816104ec565b82525050565b600081519050919050565b600082825260208201905092915050565b60005b838110156105ab578082015181840152602081019050610590565b60008484015250505050565b6000601f19601f8301169050919050565b60006105d382610571565b6105dd818561057c565b93506105ed81856020860161058d565b6105f6816105b7565b840191505092915050565b60006040820190506106166000830185610562565b818103602083015261062881846105c8565b90509392505050565b60006020828403121561064757610646610484565b5b6000610655848285016104d7565b91505092915050565b60006020820190506106736000830184610562565b92915050565b600080fd5b600080fd5b7f4e487b7100000000000000000000000000000000000000000000000000000000600052604160045260246000fd5b6106bb826105b7565b810181811067ffffffffffffffff821117156106da576106d9610683565b5b80604052505050565b60006106ed61047a565b90506106f982826106b2565b919050565b600067ffffffffffffffff82111561071957610718610683565b5b610722826105b7565b9050602081019050919050565b82818337600083830152505050565b600061075161074c846106fe565b6106e3565b90508281526020810184848401111561076d5761076c61067e565b5b61077884828561072f565b509392505050565b600082601f83011261079557610794610679565b5b81356107a584826020860161073e565b91505092915050565b6000806000606084860312156107c7576107c6610484565b5b60006107d5868287016104d7565b93505060206107e68682870161050d565b925050604084013567ffffffffffffffff81111561080757610806610489565b5b61081386828701610780565b9150509250925092565b7f4e487b7100000000000000000000000000000000000000000000000000000000600052602260045260246000fd5b6000600282049050600182168061086457607f821691505b6020821081036108775761087661081d565b5b50919050565b7f4e487b7100000000000000000000000000000000000000000000000000000000600052603260045260246000fd5b7f4e487b7100000000000000000000000000000000000000000000000000000000600052601160045260246000fd5b60006108e6826104ec565b91506108f1836104ec565b9250828201905080821115610909576109086108ac565b5b92915050565b7f4e487b7100000000000000000000000000000000000000000000000000000000600052601260045260246000fd5b6000610949826104ec565b9150610954836104ec565b9250826109645761096361090f565b5b828204905092915050565b7f526174696e67206d75737420626520312d350000000000000000000000000000600082015250565b60006109a560128361057c565b91506109b08261096f565b602082019050919050565b600060208201905081810360008301526109d481610998565b9050919050565b60008190508160005260206000209050919050565b60006020601f8301049050919050565b600082821b905092915050565b600060088302610a3d7fffffffffffffffffffffffffffffffffffffffffffffffffffffffffffffffff82610a00565b610a478683610a00565b95508019841693508086168417925050509392505050565b6000819050919050565b6000610a84610a7f610a7a846104ec565b610a5f565b6104ec565b9050919050565b6000819050919050565b610a9e83610a69565b610ab2610aaa82610a8b565b848454610a0d565b825550505050565b600090565b610ac7610aba565b610ad2818484610a95565b505050565b5b81811015610af657610aeb600082610abf565b600181019050610ad8565b5050565b601f821115610b3b57610b0c816109db565b610b15846109f0565b81016020851015610b24578190505b610b38610b30856109f0565b830182610ad7565b50505b505050565b600082821c905092915050565b6000610b5e60001984600802610b40565b1980831691505092915050565b6000610b778383610b4d565b9150826002028217905092915050565b610b9082610571565b67ffffffffffffffff811115610ba957610ba8610683565b5b610bb3825461084c565b610bbe828285610afa565b600060209050601f831160018114610bf15760008415610bdf578287015190505b610be98582610b6b565b865550610c51565b601f198416610bff866109db565b60005b82811015610c2757848901518255600182019150602085019450602081019050610c02565b86831015610c445784890151610c40601f891682610b4d565b8355505b6001600288020188555050505b50505050505056fea26469706673582212209977827e1823a8df870d4527aa9010702ea164df7784001d9c1b4145359b129a64736f6c634300081c0033",
  "linkReferences": {},
  "deployedLinkReferences": {}
}