{
  "_format": "hh-sol-artifact-1",
  "contractName": "ProfileManager",
  "sourceName": "contracts/ProfileManager.sol",
  "abi": [
    {
      "inputs": [],
      "name": "NotRegistered",
      "type": "error"
    },
    {
      "anonymous": false,
      "inputs": [
        {
          "indexed": true,
          "internalType": "address",
          "name": "user",
          "type": "address"
        }
      ],
      "name": "ProfileCreated",
      "type": "event"
    },
    {
      "anonymous": false,
      "inputs": [
        {
          "indexed": true,
          "internalType": "address",
          "name": "user",
          "type": "address"
        }
      ],
      "name": "ProfileDeleted",
      "type": "event"
    },
    {
      "anonymous": false,
      "inputs": [
        {
          "indexed": true,
          "internalType": "address",
          "name": "user",
          "type": "address"
        }
      ],
      "name": "ProfileUpdated",
      "type": "event"
    },
    {
      "inputs": [
        {
          "internalType": "string",
          "name": "_name",
          "type": "string"
        },
        {
          "internalType": "enum ProfileManager.RoleType",
          "name": "_roleType",
          "type": "uint8"
        },
        {
          "internalType": "uint256",
          "name": "_hourlyRate",
          "type": "uint256"
        }
      ],
      "name": "createProfile",
      "outputs": [],
      "stateMutability": "nonpayable",
      "type": "function"
    },
    {
      "inputs": [],
      "name": "deleteProfile",
      "outputs": [],
      "stateMutability": "nonpayable",
      "type": "function"
    },
    {
      "inputs": [
        {
          "internalType": "address",
          "name": "_user",
          "type": "address"
        }
      ],
      "name": "getProfile",
      "outputs": [
        {
          "internalType": "string",
          "name": "name",
          "type": "string"
        },
        {
          "internalType": "string",
          "name": "role",
          "type": "string"
        },
        {
          "internalType": "uint256",
          "name": "hourlyRate",
          "type": "uint256"
        },
        {
          "internalType": "bool",
          "name": "exists",
          "type": "bool"
        }
      ],
      "stateMutability": "view",
      "type": "function"
    },
    {
      "inputs": [
        {
          "internalType": "address",
          "name": "",
          "type": "address"
        }
      ],
      "name": "profiles",
      "outputs": [
        {
          "internalType": "string",
          "name": "name",
          "type": "string"
        },
        {
          "internalType": "enum ProfileManager.RoleType",
          "name": "roleType",
          "type": "uint8"
        },
        {
          "internalType": "uint256",
          "name": "hourlyRate",
          "type": "uint256"
        },
        {
          "internalType": "bool",
          "name": "exists",
          "type": "bool"
        }
      ],
      "stateMutability": "view",
      "type": "function"
    },
    {
      "inputs": [
        {
          "internalType": "enum ProfileManager.RoleType",
          "name": "_role",
          "type": "uint8"
        }
      ],
      "name": "roleTypeToString",
      "outputs": [
        {
          "internalType": "string",
          "name": "",
          "type": "string"
        }
      ],
      "stateMutability": "pure",
      "type": "function"
    },
    {
      "inputs": [
        {
          "internalType": "string",
          "name": "_name",
          "type": "string"
        },
        {
          "internalType": "enum ProfileManager.RoleType",
          "name": "_roleType",
          "type": "uint8"
        },
        {
          "internalType": "uint256",
          "name": "_hourlyRate",
          "type": "uint256"
        }
      ],
      "name": "updateProfile",
      "outputs": [],
      "stateMutability": "nonpayable",
      "type": "function"
    }
  ],
  "bytecode": "0x6080604052348015600f57600080fd5b506112aa8061001f6000396000f3fe608060405234801561001057600080fd5b50600436106100625760003560e01c80630f53a4701461006757806313775ab01461009a5780636d4540eb146100b65780637ed0c06c146100c0578063bbe15627146100f0578063fb2a1cca14610123575b600080fd5b610081600480360381019061007c91906109c8565b61013f565b6040516100919493929190610ab9565b60405180910390f35b6100b460048036038101906100af9190610bc2565b6102fa565b005b6100be610454565b005b6100da60048036038101906100d59190610c36565b610578565b6040516100e79190610c63565b60405180910390f35b61010a600480360381019061010591906109c8565b61068b565b60405161011a9493929190610cfc565b60405180910390f35b61013d60048036038101906101389190610bc2565b61075d565b005b60608060008060008060008773ffffffffffffffffffffffffffffffffffffffff1673ffffffffffffffffffffffffffffffffffffffff1681526020019081526020016000206040518060800160405290816000820180546101a090610d77565b80601f01602080910402602001604051908101604052809291908181526020018280546101cc90610d77565b80156102195780601f106101ee57610100808354040283529160200191610219565b820191906000526020600020905b8154815290600101906020018083116101fc57829003601f168201915b505050505081526020016001820160009054906101000a900460ff16600181111561024757610246610c85565b5b600181111561025957610258610c85565b5b8152602001600282015481526020016003820160009054906101000a900460ff161515151581525050905080606001516102c8576040517f08c379a00000000000000000000000000000000000000000000000000000000081526004016102bf90610df4565b60405180910390fd5b60006102d78260200151610578565b905081600001518183604001518460600151955095509550955050509193509193565b6000803373ffffffffffffffffffffffffffffffffffffffff1673ffffffffffffffffffffffffffffffffffffffff16815260200190815260200160002060030160009054906101000a900460ff1661037f576040517faba4733900000000000000000000000000000000000000000000000000000000815260040160405180910390fd5b60008060003373ffffffffffffffffffffffffffffffffffffffff1673ffffffffffffffffffffffffffffffffffffffff168152602001908152602001600020905084848260000191826103d4929190610ffa565b50828160010160006101000a81548160ff021916908360018111156103fc576103fb610c85565b5b02179055508181600201819055503373ffffffffffffffffffffffffffffffffffffffff167fbe4ec58a792f909e102ee3d745d0c3b34a4d437a54d903c4db098d31c556422f60405160405180910390a25050505050565b6000803373ffffffffffffffffffffffffffffffffffffffff1673ffffffffffffffffffffffffffffffffffffffff16815260200190815260200160002060030160009054906101000a900460ff166104d9576040517faba4733900000000000000000000000000000000000000000000000000000000815260040160405180910390fd5b60008060003373ffffffffffffffffffffffffffffffffffffffff1673ffffffffffffffffffffffffffffffffffffffff16815260200190815260200160002060030160006101000a81548160ff0219169083151502179055503373ffffffffffffffffffffffffffffffffffffffff167f517b492f6c7db035d7c3c4fa1ce0cb2d05e1f24219256f50fbab78242e544c0460405160405180910390a2565b60606000600181111561058e5761058d610c85565b5b8260018111156105a1576105a0610c85565b5b036105e3576040518060400160405280600a81526020017f667265656c616e636572000000000000000000000000000000000000000000008152509050610686565b6001808111156105f6576105f5610c85565b5b82600181111561060957610608610c85565b5b0361064b576040518060400160405280600981526020017f72656372756974657200000000000000000000000000000000000000000000008152509050610686565b6040517f08c379a000000000000000000000000000000000000000000000000000000000815260040161067d90611116565b60405180910390fd5b919050565b60006020528060005260406000206000915090508060000180546106ae90610d77565b80601f01602080910402602001604051908101604052809291908181526020018280546106da90610d77565b80156107275780601f106106fc57610100808354040283529160200191610727565b820191906000526020600020905b81548152906001019060200180831161070a57829003601f168201915b5050505050908060010160009054906101000a900460ff16908060020154908060030160009054906101000a900460ff16905084565b6000803373ffffffffffffffffffffffffffffffffffffffff1673ffffffffffffffffffffffffffffffffffffffff16815260200190815260200160002060030160009054906101000a900460ff16156107ec576040517f08c379a00000000000000000000000000000000000000000000000000000000081526004016107e390611182565b60405180910390fd5b604051806080016040528085858080601f016020809104026020016040519081016040528093929190818152602001838380828437600081840152601f19601f82011690508083019250505050505050815260200183600181111561085457610853610c85565b5b8152602001828152602001600115158152506000803373ffffffffffffffffffffffffffffffffffffffff1673ffffffffffffffffffffffffffffffffffffffff16815260200190815260200160002060008201518160000190816108b991906111a2565b5060208201518160010160006101000a81548160ff021916908360018111156108e5576108e4610c85565b5b02179055506040820151816002015560608201518160030160006101000a81548160ff0219169083151502179055509050503373ffffffffffffffffffffffffffffffffffffffff167ff10ec97e920cde75887622583772c637595a40b1f7777c18e51ea36cd127475c60405160405180910390a250505050565b600080fd5b600080fd5b600073ffffffffffffffffffffffffffffffffffffffff82169050919050565b60006109958261096a565b9050919050565b6109a58161098a565b81146109b057600080fd5b50565b6000813590506109c28161099c565b92915050565b6000602082840312156109de576109dd610960565b5b60006109ec848285016109b3565b91505092915050565b600081519050919050565b600082825260208201905092915050565b60005b83811015610a2f578082015181840152602081019050610a14565b60008484015250505050565b6000601f19601f8301169050919050565b6000610a57826109f5565b610a618185610a00565b9350610a71818560208601610a11565b610a7a81610a3b565b840191505092915050565b6000819050919050565b610a9881610a85565b82525050565b60008115159050919050565b610ab381610a9e565b82525050565b60006080820190508181036000830152610ad38187610a4c565b90508181036020830152610ae78186610a4c565b9050610af66040830185610a8f565b610b036060830184610aaa565b95945050505050565b600080fd5b600080fd5b600080fd5b60008083601f840112610b3157610b30610b0c565b5b8235905067ffffffffffffffff811115610b4e57610b4d610b11565b5b602083019150836001820283011115610b6a57610b69610b16565b5b9250929050565b60028110610b7e57600080fd5b50565b600081359050610b9081610b71565b92915050565b610b9f81610a85565b8114610baa57600080fd5b50565b600081359050610bbc81610b96565b92915050565b60008060008060608587031215610bdc57610bdb610960565b5b600085013567ffffffffffffffff811115610bfa57610bf9610965565b5b610c0687828801610b1b565b94509450506020610c1987828801610b81565b9250506040610c2a87828801610bad565b91505092959194509250565b600060208284031215610c4c57610c4b610960565b5b6000610c5a84828501610b81565b91505092915050565b60006020820190508181036000830152610c7d8184610a4c565b905092915050565b7f4e487b7100000000000000000000000000000000000000000000000000000000600052602160045260246000fd5b60028110610cc557610cc4610c85565b5b50565b6000819050610cd682610cb4565b919050565b6000610ce682610cc8565b9050919050565b610cf681610cdb565b82525050565b60006080820190508181036000830152610d168187610a4c565b9050610d256020830186610ced565b610d326040830185610a8f565b610d3f6060830184610aaa565b95945050505050565b7f4e487b7100000000000000000000000000000000000000000000000000000000600052602260045260246000fd5b60006002820490506001821680610d8f57607f821691505b602082108103610da257610da1610d48565b5b50919050565b7f50726f66696c6520646f6573206e6f7420657869737400000000000000000000600082015250565b6000610dde601683610a00565b9150610de982610da8565b602082019050919050565b60006020820190508181036000830152610e0d81610dd1565b9050919050565b600082905092915050565b7f4e487b7100000000000000000000000000000000000000000000000000000000600052604160045260246000fd5b60008190508160005260206000209050919050565b60006020601f8301049050919050565b600082821b905092915050565b600060088302610eb07fffffffffffffffffffffffffffffffffffffffffffffffffffffffffffffffff82610e73565b610eba8683610e73565b95508019841693508086168417925050509392505050565b6000819050919050565b6000610ef7610ef2610eed84610a85565b610ed2565b610a85565b9050919050565b6000819050919050565b610f1183610edc565b610f25610f1d82610efe565b848454610e80565b825550505050565b600090565b610f3a610f2d565b610f45818484610f08565b505050565b5b81811015610f6957610f5e600082610f32565b600181019050610f4b565b5050565b601f821115610fae57610f7f81610e4e565b610f8884610e63565b81016020851015610f97578190505b610fab610fa385610e63565b830182610f4a565b50505b505050565b600082821c905092915050565b6000610fd160001984600802610fb3565b1980831691505092915050565b6000610fea8383610fc0565b9150826002028217905092915050565b6110048383610e14565b67ffffffffffffffff81111561101d5761101c610e1f565b5b6110278254610d77565b611032828285610f6d565b6000601f831160018114611061576000841561104f578287013590505b6110598582610fde565b8655506110c1565b601f19841661106f86610e4e565b60005b8281101561109757848901358255600182019150602085019450602081019050611072565b868310156110b457848901356110b0601f891682610fc0565b8355505b6001600288020188555050505b50505050505050565b7f496e76616c696420726f6c650000000000000000000000000000000000000000600082015250565b6000611100600c83610a00565b915061110b826110ca565b602082019050919050565b6000602082019050818103600083015261112f816110f3565b9050919050565b7f50726f66696c6520616c72656164792065786973747300000000000000000000600082015250565b600061116c601683610a00565b915061117782611136565b602082019050919050565b6000602082019050818103600083015261119b8161115f565b9050919050565b6111ab826109f5565b67ffffffffffffffff8111156111c4576111c3610e1f565b5b6111ce8254610d77565b6111d9828285610f6d565b600060209050601f83116001811461120c57600084156111fa578287015190505b6112048582610fde565b86555061126c565b601f19841661121a86610e4e565b60005b828110156112425784890151825560018201915060208501945060208101905061121d565b8683101561125f578489015161125b601f891682610fc0565b8355505b6001600288020188555050505b50505050505056fea264697066735822122034e23eee1bf480dc447b4c0e5b039934484c47e010c9caa710af4522d3b6fedf64736f6c634300081c0033",
  "linkReferences": {},
  "deployedLinkReferences": {}
}