{
  "_format": "hh-sol-artifact-1",
  "contractName": "Escrow",
  "sourceName": "contracts/Escrow.sol",
  "abi": [
    {
      "anonymous": false,
      "inputs": [
        {
          "indexed": true,
          "internalType": "uint256",
          "name": "jobId",
          "type": "uint256"
        }
      ],
      "name": "FundsReleased",
      "type": "event"
    },
    {
      "anonymous": false,
      "inputs": [
        {
          "indexed": true,
          "internalType": "uint256",
          "name": "jobId",
          "type": "uint256"
        }
      ],
      "name": "JobCompleted",
      "type": "event"
    },
    {
      "anonymous": false,
      "inputs": [
        {
          "indexed": true,
          "internalType": "uint256",
          "name": "jobId",
          "type": "uint256"
        },
        {
          "indexed": false,
          "internalType": "address",
          "name": "client",
          "type": "address"
        },
        {
          "indexed": false,
          "internalType": "address",
          "name": "freelancer",
          "type": "address"
        },
        {
          "indexed": false,
          "internalType": "uint256",
          "name": "amount",
          "type": "uint256"
        }
      ],
      "name": "JobCreated",
      "type": "event"
    },
    {
      "anonymous": false,
      "inputs": [
        {
          "indexed": true,
          "internalType": "uint256",
          "name": "jobId",
          "type": "uint256"
        }
      ],
      "name": "JobDisputed",
      "type": "event"
    },
    {
      "inputs": [
        {
          "internalType": "uint256",
          "name": "_jobId",
          "type": "uint256"
        }
      ],
      "name": "completeJob",
      "outputs": [],
      "stateMutability": "nonpayable",
      "type": "function"
    },
    {
      "inputs": [
        {
          "internalType": "address",
          "name": "_freelancer",
          "type": "address"
        },
        {
          "internalType": "uint256",
          "name": "_deadline",
          "type": "uint256"
        }
      ],
      "name": "createJob",
      "outputs": [],
      "stateMutability": "payable",
      "type": "function"
    },
    {
      "inputs": [
        {
          "internalType": "uint256",
          "name": "_jobId",
          "type": "uint256"
        }
      ],
      "name": "disputeJob",
      "outputs": [],
      "stateMutability": "nonpayable",
      "type": "function"
    },
    {
      "inputs": [],
      "name": "jobCounter",
      "outputs": [
        {
          "internalType": "uint256",
          "name": "",
          "type": "uint256"
        }
      ],
      "stateMutability": "view",
      "type": "function"
    },
    {
      "inputs": [
        {
          "internalType": "uint256",
          "name": "",
          "type": "uint256"
        }
      ],
      "name": "jobs",
      "outputs": [
        {
          "internalType": "address",
          "name": "client",
          "type": "address"
        },
        {
          "internalType": "address",
          "name": "freelancer",
          "type": "address"
        },
        {
          "internalType": "uint256",
          "name": "amount",
          "type": "uint256"
        },
        {
          "internalType": "uint256",
          "name": "deadline",
          "type": "uint256"
        },
        {
          "internalType": "enum Escrow.Status",
          "name": "status",
          "type": "uint8"
        }
      ],
      "stateMutability": "view",
      "type": "function"
    },
    {
      "inputs": [
        {
          "internalType": "uint256",
          "name": "_jobId",
          "type": "uint256"
        }
      ],
      "name": "releaseFunds",
      "outputs": [],
      "stateMutability": "nonpayable",
      "type": "function"
    }
  ],
  "bytecode": "0x6080604052348015600f57600080fd5b50610dde8061001f6000396000f3fe6080604052600436106100555760003560e01c8063180aedf31461005a5780633f2a66f81461009b5780634d68282f146100b757806350355d76146100e0578063a1c0d32f1461010b578063d93d9beb14610134575b600080fd5b34801561006657600080fd5b50610081600480360381019061007c9190610881565b61015d565b604051610092959493929190610975565b60405180910390f35b6100b560048036038101906100b091906109f4565b6101e0565b005b3480156100c357600080fd5b506100de60048036038101906100d99190610881565b6103d8565b005b3480156100ec57600080fd5b506100f5610542565b6040516101029190610a34565b60405180910390f35b34801561011757600080fd5b50610132600480360381019061012d9190610881565b610548565b005b34801561014057600080fd5b5061015b60048036038101906101569190610881565b6106c7565b005b60016020528060005260406000206000915090508060000160009054906101000a900473ffffffffffffffffffffffffffffffffffffffff16908060010160009054906101000a900473ffffffffffffffffffffffffffffffffffffffff16908060020154908060030154908060040160009054906101000a900460ff16905085565b60003411610223576040517f08c379a000000000000000000000000000000000000000000000000000000000815260040161021a90610aac565b60405180910390fd5b60016000808282546102359190610afb565b925050819055506040518060a001604052803373ffffffffffffffffffffffffffffffffffffffff1681526020018373ffffffffffffffffffffffffffffffffffffffff16815260200134815260200182426102919190610afb565b8152602001600060038111156102aa576102a96108fe565b5b815250600160008054815260200190815260200160002060008201518160000160006101000a81548173ffffffffffffffffffffffffffffffffffffffff021916908373ffffffffffffffffffffffffffffffffffffffff16021790555060208201518160010160006101000a81548173ffffffffffffffffffffffffffffffffffffffff021916908373ffffffffffffffffffffffffffffffffffffffff160217905550604082015181600201556060820151816003015560808201518160040160006101000a81548160ff0219169083600381111561038e5761038d6108fe565b5b02179055509050506000547f8f4ee83cefe0dfb2f73fe6057bfa5b233fc43358bbb5f5606f444cbd4c5c4f8c3384346040516103cc93929190610b2f565b60405180910390a25050565b600060016000838152602001908152602001600020905060016003811115610403576104026108fe565b5b8160040160009054906101000a900460ff166003811115610427576104266108fe565b5b14806104365750806003015442115b610475576040517f08c379a000000000000000000000000000000000000000000000000000000000815260040161046c90610bb2565b60405180910390fd5b60038160040160006101000a81548160ff0219169083600381111561049d5761049c6108fe565b5b02179055508060010160009054906101000a900473ffffffffffffffffffffffffffffffffffffffff1673ffffffffffffffffffffffffffffffffffffffff166108fc82600201549081150290604051600060405180830381858888f19350505050158015610510573d6000803e3d6000fd5b50817f952b264c8e0a06cddb4bbaa6d6af1d565145329fd95bbe72cb2b53942b2dc96660405160405180910390a25050565b60005481565b60006001600083815260200190815260200160002090508060000160009054906101000a900473ffffffffffffffffffffffffffffffffffffffff1673ffffffffffffffffffffffffffffffffffffffff163373ffffffffffffffffffffffffffffffffffffffff16146105f1576040517f08c379a00000000000000000000000000000000000000000000000000000000081526004016105e890610c44565b60405180910390fd5b60006003811115610605576106046108fe565b5b8160040160009054906101000a900460ff166003811115610629576106286108fe565b5b14610669576040517f08c379a000000000000000000000000000000000000000000000000000000000815260040161066090610cb0565b60405180910390fd5b60018160040160006101000a81548160ff02191690836003811115610691576106906108fe565b5b0217905550817f02244c8529cb95e213ee542e76e7776342b3dabd10203d01472bbf4441be892960405160405180910390a25050565b60006001600083815260200190815260200160002090508060010160009054906101000a900473ffffffffffffffffffffffffffffffffffffffff1673ffffffffffffffffffffffffffffffffffffffff163373ffffffffffffffffffffffffffffffffffffffff1614610770576040517f08c379a000000000000000000000000000000000000000000000000000000000815260040161076790610d1c565b60405180910390fd5b60006003811115610784576107836108fe565b5b8160040160009054906101000a900460ff1660038111156107a8576107a76108fe565b5b146107e8576040517f08c379a00000000000000000000000000000000000000000000000000000000081526004016107df90610d88565b60405180910390fd5b60028160040160006101000a81548160ff021916908360038111156108105761080f6108fe565b5b0217905550817fb1dee78cef8c6887046d91c59e17f84fbc012c9f7efa49a10cce97e13cc94bf460405160405180910390a25050565b600080fd5b6000819050919050565b61085e8161084b565b811461086957600080fd5b50565b60008135905061087b81610855565b92915050565b60006020828403121561089757610896610846565b5b60006108a58482850161086c565b91505092915050565b600073ffffffffffffffffffffffffffffffffffffffff82169050919050565b60006108d9826108ae565b9050919050565b6108e9816108ce565b82525050565b6108f88161084b565b82525050565b7f4e487b7100000000000000000000000000000000000000000000000000000000600052602160045260246000fd5b6004811061093e5761093d6108fe565b5b50565b600081905061094f8261092d565b919050565b600061095f82610941565b9050919050565b61096f81610954565b82525050565b600060a08201905061098a60008301886108e0565b61099760208301876108e0565b6109a460408301866108ef565b6109b160608301856108ef565b6109be6080830184610966565b9695505050505050565b6109d1816108ce565b81146109dc57600080fd5b50565b6000813590506109ee816109c8565b92915050565b60008060408385031215610a0b57610a0a610846565b5b6000610a19858286016109df565b9250506020610a2a8582860161086c565b9150509250929050565b6000602082019050610a4960008301846108ef565b92915050565b600082825260208201905092915050565b7f4d7573742066756e6420657363726f7700000000000000000000000000000000600082015250565b6000610a96601083610a4f565b9150610aa182610a60565b602082019050919050565b60006020820190508181036000830152610ac581610a89565b9050919050565b7f4e487b7100000000000000000000000000000000000000000000000000000000600052601160045260246000fd5b6000610b068261084b565b9150610b118361084b565b9250828201905080821115610b2957610b28610acc565b5b92915050565b6000606082019050610b4460008301866108e0565b610b5160208301856108e0565b610b5e60408301846108ef565b949350505050565b7f43616e6e6f742072656c656173652066756e6473207965740000000000000000600082015250565b6000610b9c601883610a4f565b9150610ba782610b66565b602082019050919050565b60006020820190508181036000830152610bcb81610b8f565b9050919050565b7f4f6e6c7920636c69656e742063616e20636f6e6669726d20636f6d706c65746960008201527f6f6e000000000000000000000000000000000000000000000000000000000000602082015250565b6000610c2e602283610a4f565b9150610c3982610bd2565b604082019050919050565b60006020820190508181036000830152610c5d81610c21565b9050919050565b7f4a6f62206e6f7420696e2070656e64696e672073746174650000000000000000600082015250565b6000610c9a601883610a4f565b9150610ca582610c64565b602082019050919050565b60006020820190508181036000830152610cc981610c8d565b9050919050565b7f4f6e6c7920667265656c616e6365722063616e20646973707574650000000000600082015250565b6000610d06601b83610a4f565b9150610d1182610cd0565b602082019050919050565b60006020820190508181036000830152610d3581610cf9565b9050919050565b7f4a6f62206e6f742064697370757461626c650000000000000000000000000000600082015250565b6000610d72601283610a4f565b9150610d7d82610d3c565b602082019050919050565b60006020820190508181036000830152610da181610d65565b905091905056fea26469706673582212208c96c1685bb075e3611eddc49a559e254f59f296f9d25930f24a12621eb2ff5764736f6c634300081c0033",
  "linkReferences": {},
  "deployedLinkReferences": {}
}