{
  "_format": "hh-sol-artifact-1",
  "contractName": "ProfileManager",
  "sourceName": "contracts/ProfileManager.sol",
  "abi": [
    {
      "inputs": [],
      "name": "ProfileDoesNotExist",
      "type": "error"
    },
    {
      "inputs": [],
      "name": "UserAlreadyExist",
      "type": "error"
    },
    {
      "anonymous": false,
      "inputs": [
        {
          "indexed": true,
          "internalType": "address",
          "name": "user",
          "type": "address"
        },
        {
          "indexed": false,
          "internalType": "string",
          "name": "name",
          "type": "string"
        },
        {
          "indexed": false,
          "internalType": "string",
          "name": "role",
          "type": "string"
        },
        {
          "indexed": false,
          "internalType": "string",
          "name": "uri",
          "type": "string"
        }
      ],
      "name": "ProfileRegistered",
      "type": "event"
    },
    {
      "anonymous": false,
      "inputs": [
        {
          "indexed": true,
          "internalType": "address",
          "name": "user",
          "type": "address"
        },
        {
          "indexed": false,
          "internalType": "string",
          "name": "uri",
          "type": "string"
        }
      ],
      "name": "ProfileUpdated",
      "type": "event"
    },
    {
      "inputs": [
        {
          "internalType": "address",
          "name": "",
          "type": "address"
        }
      ],
      "name": "profiles",
      "outputs": [
        {
          "internalType": "string",
          "name": "name",
          "type": "string"
        },
        {
          "internalType": "string",
          "name": "role",
          "type": "string"
        },
        {
          "internalType": "string",
          "name": "metadataURI",
          "type": "string"
        },
        {
          "internalType": "bool",
          "name": "exists",
          "type": "bool"
        }
      ],
      "stateMutability": "view",
      "type": "function"
    },
    {
      "inputs": [
        {
          "internalType": "string",
          "name": "_name",
          "type": "string"
        },
        {
          "internalType": "string",
          "name": "_role",
          "type": "string"
        },
        {
          "internalType": "string",
          "name": "_uri",
          "type": "string"
        }
      ],
      "name": "registerProfile",
      "outputs": [],
      "stateMutability": "nonpayable",
      "type": "function"
    },
    {
      "inputs": [
        {
          "internalType": "string",
          "name": "_uri",
          "type": "string"
        }
      ],
      "name": "updateProfileURI",
      "outputs": [],
      "stateMutability": "nonpayable",
      "type": "function"
    }
  ],
  "bytecode": "0x6080604052348015600f57600080fd5b50610ca48061001f6000396000f3fe608060405234801561001057600080fd5b50600436106100415760003560e01c80633945fbb014610046578063bbe1562714610062578063d0e2b21114610095575b600080fd5b610060600480360381019061005b91906106a9565b6100b1565b005b61007c600480360381019061007791906107ae565b610255565b60405161008c9493929190610875565b60405180910390f35b6100af60048036038101906100aa91906108cf565b61042a565b005b6000803373ffffffffffffffffffffffffffffffffffffffff1673ffffffffffffffffffffffffffffffffffffffff16815260200190815260200160002060030160009054906101000a900460ff1615610137576040517f3ee20b6900000000000000000000000000000000000000000000000000000000815260040160405180910390fd5b6040518060800160405280848152602001838152602001828152602001600115158152506000803373ffffffffffffffffffffffffffffffffffffffff1673ffffffffffffffffffffffffffffffffffffffff16815260200190815260200160002060008201518160000190816101ae9190610b2e565b5060208201518160010190816101c49190610b2e565b5060408201518160020190816101da9190610b2e565b5060608201518160030160006101000a81548160ff0219169083151502179055509050503373ffffffffffffffffffffffffffffffffffffffff167fb00e97c051ed44699a2562b63367a74234015a5e8470317bd1147ff68fc31bca84848460405161024893929190610c00565b60405180910390a2505050565b600060205280600052604060002060009150905080600001805461027890610947565b80601f01602080910402602001604051908101604052809291908181526020018280546102a490610947565b80156102f15780601f106102c6576101008083540402835291602001916102f1565b820191906000526020600020905b8154815290600101906020018083116102d457829003601f168201915b50505050509080600101805461030690610947565b80601f016020809104026020016040519081016040528092919081815260200182805461033290610947565b801561037f5780601f106103545761010080835404028352916020019161037f565b820191906000526020600020905b81548152906001019060200180831161036257829003601f168201915b50505050509080600201805461039490610947565b80601f01602080910402602001604051908101604052809291908181526020018280546103c090610947565b801561040d5780601f106103e25761010080835404028352916020019161040d565b820191906000526020600020905b8154815290600101906020018083116103f057829003601f168201915b5050505050908060030160009054906101000a900460ff16905084565b6000803373ffffffffffffffffffffffffffffffffffffffff1673ffffffffffffffffffffffffffffffffffffffff16815260200190815260200160002060030160009054906101000a900460ff166104af576040517f5a05a1b100000000000000000000000000000000000000000000000000000000815260040160405180910390fd5b806000803373ffffffffffffffffffffffffffffffffffffffff1673ffffffffffffffffffffffffffffffffffffffff16815260200190815260200160002060020190816104fd9190610b2e565b503373ffffffffffffffffffffffffffffffffffffffff167fdd635a4cd84864e37e4479dbfc2ec667acfa473c83c8422a8ac9d9d07599b01c826040516105449190610c4c565b60405180910390a250565b6000604051905090565b600080fd5b600080fd5b600080fd5b600080fd5b6000601f19601f8301169050919050565b7f4e487b7100000000000000000000000000000000000000000000000000000000600052604160045260246000fd5b6105b68261056d565b810181811067ffffffffffffffff821117156105d5576105d461057e565b5b80604052505050565b60006105e861054f565b90506105f482826105ad565b919050565b600067ffffffffffffffff8211156106145761061361057e565b5b61061d8261056d565b9050602081019050919050565b82818337600083830152505050565b600061064c610647846105f9565b6105de565b90508281526020810184848401111561066857610667610568565b5b61067384828561062a565b509392505050565b600082601f8301126106905761068f610563565b5b81356106a0848260208601610639565b91505092915050565b6000806000606084860312156106c2576106c1610559565b5b600084013567ffffffffffffffff8111156106e0576106df61055e565b5b6106ec8682870161067b565b935050602084013567ffffffffffffffff81111561070d5761070c61055e565b5b6107198682870161067b565b925050604084013567ffffffffffffffff81111561073a5761073961055e565b5b6107468682870161067b565b9150509250925092565b600073ffffffffffffffffffffffffffffffffffffffff82169050919050565b600061077b82610750565b9050919050565b61078b81610770565b811461079657600080fd5b50565b6000813590506107a881610782565b92915050565b6000602082840312156107c4576107c3610559565b5b60006107d284828501610799565b91505092915050565b600081519050919050565b600082825260208201905092915050565b60005b838110156108155780820151818401526020810190506107fa565b60008484015250505050565b600061082c826107db565b61083681856107e6565b93506108468185602086016107f7565b61084f8161056d565b840191505092915050565b60008115159050919050565b61086f8161085a565b82525050565b6000608082019050818103600083015261088f8187610821565b905081810360208301526108a38186610821565b905081810360408301526108b78185610821565b90506108c66060830184610866565b95945050505050565b6000602082840312156108e5576108e4610559565b5b600082013567ffffffffffffffff8111156109035761090261055e565b5b61090f8482850161067b565b91505092915050565b7f4e487b7100000000000000000000000000000000000000000000000000000000600052602260045260246000fd5b6000600282049050600182168061095f57607f821691505b60208210810361097257610971610918565b5b50919050565b60008190508160005260206000209050919050565b60006020601f8301049050919050565b600082821b905092915050565b6000600883026109da7fffffffffffffffffffffffffffffffffffffffffffffffffffffffffffffffff8261099d565b6109e4868361099d565b95508019841693508086168417925050509392505050565b6000819050919050565b6000819050919050565b6000610a2b610a26610a21846109fc565b610a06565b6109fc565b9050919050565b6000819050919050565b610a4583610a10565b610a59610a5182610a32565b8484546109aa565b825550505050565b600090565b610a6e610a61565b610a79818484610a3c565b505050565b5b81811015610a9d57610a92600082610a66565b600181019050610a7f565b5050565b601f821115610ae257610ab381610978565b610abc8461098d565b81016020851015610acb578190505b610adf610ad78561098d565b830182610a7e565b50505b505050565b600082821c905092915050565b6000610b0560001984600802610ae7565b1980831691505092915050565b6000610b1e8383610af4565b9150826002028217905092915050565b610b37826107db565b67ffffffffffffffff811115610b5057610b4f61057e565b5b610b5a8254610947565b610b65828285610aa1565b600060209050601f831160018114610b985760008415610b86578287015190505b610b908582610b12565b865550610bf8565b601f198416610ba686610978565b60005b82811015610bce57848901518255600182019150602085019450602081019050610ba9565b86831015610beb5784890151610be7601f891682610af4565b8355505b6001600288020188555050505b505050505050565b60006060820190508181036000830152610c1a8186610821565b90508181036020830152610c2e8185610821565b90508181036040830152610c428184610821565b9050949350505050565b60006020820190508181036000830152610c668184610821565b90509291505056fea2646970667358221220c1098e1ff7b3ffa070d66e4ecf53e91d8c6680b753189c44784b409ef40bff3764736f6c634300081c0033",
  "linkReferences": {},
  "deployedLinkReferences": {}
}