{
  "_format": "hh-sol-artifact-1",
  "contractName": "LearningModule",
  "sourceName": "contracts/LearningModule.sol",
  "abi": [
    {
      "anonymous": false,
      "inputs": [
        {
          "indexed": true,
          "internalType": "address",
          "name": "user",
          "type": "address"
        },
        {
          "indexed": true,
          "internalType": "uint256",
          "name": "id",
          "type": "uint256"
        }
      ],
      "name": "CourseCompleted",
      "type": "event"
    },
    {
      "anonymous": false,
      "inputs": [
        {
          "indexed": true,
          "internalType": "uint256",
          "name": "id",
          "type": "uint256"
        },
        {
          "indexed": false,
          "internalType": "string",
          "name": "title",
          "type": "string"
        },
        {
          "indexed": false,
          "internalType": "string",
          "name": "uri",
          "type": "string"
        }
      ],
      "name": "CourseCreated",
      "type": "event"
    },
    {
      "inputs": [
        {
          "internalType": "uint256",
          "name": "_id",
          "type": "uint256"
        }
      ],
      "name": "completeCourse",
      "outputs": [],
      "stateMutability": "nonpayable",
      "type": "function"
    },
    {
      "inputs": [
        {
          "internalType": "address",
          "name": "",
          "type": "address"
        },
        {
          "internalType": "uint256",
          "name": "",
          "type": "uint256"
        }
      ],
      "name": "completed",
      "outputs": [
        {
          "internalType": "bool",
          "name": "",
          "type": "bool"
        }
      ],
      "stateMutability": "view",
      "type": "function"
    },
    {
      "inputs": [],
      "name": "courseCounter",
      "outputs": [
        {
          "internalType": "uint256",
          "name": "",
          "type": "uint256"
        }
      ],
      "stateMutability": "view",
      "type": "function"
    },
    {
      "inputs": [
        {
          "internalType": "uint256",
          "name": "",
          "type": "uint256"
        }
      ],
      "name": "courses",
      "outputs": [
        {
          "internalType": "string",
          "name": "title",
          "type": "string"
        },
        {
          "internalType": "string",
          "name": "uri",
          "type": "string"
        }
      ],
      "stateMutability": "view",
      "type": "function"
    },
    {
      "inputs": [
        {
          "internalType": "string",
          "name": "_title",
          "type": "string"
        },
        {
          "internalType": "string",
          "name": "_uri",
          "type": "string"
        }
      ],
      "name": "createCourse",
      "outputs": [],
      "stateMutability": "nonpayable",
      "type": "function"
    },
    {
      "inputs": [
        {
          "internalType": "address",
          "name": "_user",
          "type": "address"
        },
        {
          "internalType": "uint256",
          "name": "_id",
          "type": "uint256"
        }
      ],
      "name": "hasCompleted",
      "outputs": [
        {
          "internalType": "bool",
          "name": "",
          "type": "bool"
        }
      ],
      "stateMutability": "view",
      "type": "function"
    }
  ],
  "bytecode": "0x6080604052348015600f57600080fd5b50610cfc8061001f6000396000f3fe608060405234801561001057600080fd5b50600436106100625760003560e01c80630d3b4292146100675780632e2467861461008357806382216fbd146100b357806396f979d2146100d1578063a26a795314610102578063aa995c2c1461011e575b600080fd5b610081600480360381019061007c9190610566565b61014e565b005b61009d600480360381019061009891906105f1565b61029b565b6040516100aa919061064c565b60405180910390f35b6100bb610303565b6040516100c89190610676565b60405180910390f35b6100eb60048036038101906100e69190610566565b610309565b6040516100f9929190610721565b60405180910390f35b61011c6004803603810190610117919061088d565b61043d565b005b610138600480360381019061013391906105f1565b6104ed565b604051610145919061064c565b60405180910390f35b600160003373ffffffffffffffffffffffffffffffffffffffff1673ffffffffffffffffffffffffffffffffffffffff168152602001908152602001600020600082815260200190815260200160002060009054906101000a900460ff16156101ec576040517f08c379a00000000000000000000000000000000000000000000000000000000081526004016101e390610951565b60405180910390fd5b60018060003373ffffffffffffffffffffffffffffffffffffffff1673ffffffffffffffffffffffffffffffffffffffff168152602001908152602001600020600083815260200190815260200160002060006101000a81548160ff021916908315150217905550803373ffffffffffffffffffffffffffffffffffffffff167f4b85f119a65c9ab344d9a4d007a895c9a738e08054fee095494567187c45ea8660405160405180910390a350565b6000600160008473ffffffffffffffffffffffffffffffffffffffff1673ffffffffffffffffffffffffffffffffffffffff168152602001908152602001600020600083815260200190815260200160002060009054906101000a900460ff16905092915050565b60025481565b600060205280600052604060002060009150905080600001805461032c906109a0565b80601f0160208091040260200160405190810160405280929190818152602001828054610358906109a0565b80156103a55780601f1061037a576101008083540402835291602001916103a5565b820191906000526020600020905b81548152906001019060200180831161038857829003601f168201915b5050505050908060010180546103ba906109a0565b80601f01602080910402602001604051908101604052809291908181526020018280546103e6906109a0565b80156104335780601f1061040857610100808354040283529160200191610433565b820191906000526020600020905b81548152906001019060200180831161041657829003601f168201915b5050505050905082565b6002600081548092919061045090610a00565b9190505550604051806040016040528083815260200182815250600080600254815260200190815260200160002060008201518160000190816104939190610bf4565b5060208201518160010190816104a99190610bf4565b509050506002547fde9406a80ec412e1774c566cfc90b0aa3adb56b79530121356ed153cd1cbafd283836040516104e1929190610721565b60405180910390a25050565b60016020528160005260406000206020528060005260406000206000915091509054906101000a900460ff1681565b6000604051905090565b600080fd5b600080fd5b6000819050919050565b61054381610530565b811461054e57600080fd5b50565b6000813590506105608161053a565b92915050565b60006020828403121561057c5761057b610526565b5b600061058a84828501610551565b91505092915050565b600073ffffffffffffffffffffffffffffffffffffffff82169050919050565b60006105be82610593565b9050919050565b6105ce816105b3565b81146105d957600080fd5b50565b6000813590506105eb816105c5565b92915050565b6000806040838503121561060857610607610526565b5b6000610616858286016105dc565b925050602061062785828601610551565b9150509250929050565b60008115159050919050565b61064681610631565b82525050565b6000602082019050610661600083018461063d565b92915050565b61067081610530565b82525050565b600060208201905061068b6000830184610667565b92915050565b600081519050919050565b600082825260208201905092915050565b60005b838110156106cb5780820151818401526020810190506106b0565b60008484015250505050565b6000601f19601f8301169050919050565b60006106f382610691565b6106fd818561069c565b935061070d8185602086016106ad565b610716816106d7565b840191505092915050565b6000604082019050818103600083015261073b81856106e8565b9050818103602083015261074f81846106e8565b90509392505050565b600080fd5b600080fd5b7f4e487b7100000000000000000000000000000000000000000000000000000000600052604160045260246000fd5b61079a826106d7565b810181811067ffffffffffffffff821117156107b9576107b8610762565b5b80604052505050565b60006107cc61051c565b90506107d88282610791565b919050565b600067ffffffffffffffff8211156107f8576107f7610762565b5b610801826106d7565b9050602081019050919050565b82818337600083830152505050565b600061083061082b846107dd565b6107c2565b90508281526020810184848401111561084c5761084b61075d565b5b61085784828561080e565b509392505050565b600082601f83011261087457610873610758565b5b813561088484826020860161081d565b91505092915050565b600080604083850312156108a4576108a3610526565b5b600083013567ffffffffffffffff8111156108c2576108c161052b565b5b6108ce8582860161085f565b925050602083013567ffffffffffffffff8111156108ef576108ee61052b565b5b6108fb8582860161085f565b9150509250929050565b7f416c726561647920636f6d706c65746564000000000000000000000000000000600082015250565b600061093b60118361069c565b915061094682610905565b602082019050919050565b6000602082019050818103600083015261096a8161092e565b9050919050565b7f4e487b7100000000000000000000000000000000000000000000000000000000600052602260045260246000fd5b600060028204905060018216806109b857607f821691505b6020821081036109cb576109ca610971565b5b50919050565b7f4e487b7100000000000000000000000000000000000000000000000000000000600052601160045260246000fd5b6000610a0b82610530565b91507fffffffffffffffffffffffffffffffffffffffffffffffffffffffffffffffff8203610a3d57610a3c6109d1565b5b600182019050919050565b60008190508160005260206000209050919050565b60006020601f8301049050919050565b600082821b905092915050565b600060088302610aaa7fffffffffffffffffffffffffffffffffffffffffffffffffffffffffffffffff82610a6d565b610ab48683610a6d565b95508019841693508086168417925050509392505050565b6000819050919050565b6000610af1610aec610ae784610530565b610acc565b610530565b9050919050565b6000819050919050565b610b0b83610ad6565b610b1f610b1782610af8565b848454610a7a565b825550505050565b600090565b610b34610b27565b610b3f818484610b02565b505050565b5b81811015610b6357610b58600082610b2c565b600181019050610b45565b5050565b601f821115610ba857610b7981610a48565b610b8284610a5d565b81016020851015610b91578190505b610ba5610b9d85610a5d565b830182610b44565b50505b505050565b600082821c905092915050565b6000610bcb60001984600802610bad565b1980831691505092915050565b6000610be48383610bba565b9150826002028217905092915050565b610bfd82610691565b67ffffffffffffffff811115610c1657610c15610762565b5b610c2082546109a0565b610c2b828285610b67565b600060209050601f831160018114610c5e5760008415610c4c578287015190505b610c568582610bd8565b865550610cbe565b601f198416610c6c86610a48565b60005b82811015610c9457848901518255600182019150602085019450602081019050610c6f565b86831015610cb15784890151610cad601f891682610bba565b8355505b6001600288020188555050505b50505050505056fea2646970667358221220a9c8f85a4ad7c5da8e8cbbb00f138083e3886904ba9ff2c58651bc17b9131e9564736f6c634300081c0033",
  "linkReferences": {},
  "deployedLinkReferences": {}
}